{
  "abi": [
    {
      "anonymous": false,
      "inputs": [
        {
          "indexed": false,
          "internalType": "bytes32",
          "name": "key",
          "type": "bytes32"
        },
        {
          "indexed": false,
          "internalType": "uint256",
          "name": "size",
          "type": "uint256"
        },
        {
          "indexed": false,
          "internalType": "uint256",
          "name": "collateralValue",
          "type": "uint256"
        },
        {
          "indexed": false,
          "internalType": "uint256",
          "name": "entryPrice",
          "type": "uint256"
        },
        {
          "indexed": false,
          "internalType": "uint256",
          "name": "entryInterestRate",
          "type": "uint256"
        },
        {
          "indexed": false,
          "internalType": "uint256",
          "name": "reserveAmount",
          "type": "uint256"
        }
      ],
      "name": "ClosePosition",
      "type": "event"
    },
    {
      "anonymous": false,
      "inputs": [
        {
          "indexed": false,
          "internalType": "bytes32",
          "name": "key",
          "type": "bytes32"
        },
        {
          "indexed": false,
          "internalType": "address",
          "name": "account",
          "type": "address"
        },
        {
          "indexed": false,
          "internalType": "address",
          "name": "collateralToken",
          "type": "address"
        },
        {
          "indexed": false,
          "internalType": "address",
          "name": "indexToken",
          "type": "address"
        },
        {
          "indexed": false,
          "internalType": "uint256",
          "name": "collateralChanged",
          "type": "uint256"
        },
        {
          "indexed": false,
          "internalType": "uint256",
          "name": "sizeChanged",
          "type": "uint256"
        },
        {
          "indexed": false,
          "internalType": "enum Side",
          "name": "side",
          "type": "uint8"
        },
        {
          "indexed": false,
          "internalType": "uint256",
          "name": "indexPrice",
          "type": "uint256"
        }
      ],
      "name": "DecreasePosition",
      "type": "event"
    },
    {
      "anonymous": false,
      "inputs": [
        {
          "indexed": false,
          "internalType": "bytes32",
          "name": "key",
          "type": "bytes32"
        },
        {
          "indexed": false,
          "internalType": "address",
          "name": "account",
          "type": "address"
        },
        {
          "indexed": false,
          "internalType": "address",
          "name": "collateralToken",
          "type": "address"
        },
        {
          "indexed": false,
          "internalType": "address",
          "name": "indexToken",
          "type": "address"
        },
        {
          "indexed": false,
          "internalType": "uint256",
          "name": "collateralValue",
          "type": "uint256"
        },
        {
          "indexed": false,
          "internalType": "uint256",
          "name": "sizeChanged",
          "type": "uint256"
        },
        {
          "indexed": false,
          "internalType": "enum Side",
          "name": "side",
          "type": "uint8"
        },
        {
          "indexed": false,
          "internalType": "uint256",
          "name": "indexPrice",
          "type": "uint256"
        }
      ],
      "name": "IncreasePosition",
      "type": "event"
    },
    {
      "anonymous": false,
      "inputs": [
        {
          "indexed": false,
          "internalType": "uint8",
          "name": "version",
          "type": "uint8"
        }
      ],
      "name": "Initialized",
      "type": "event"
    },
    {
      "anonymous": false,
      "inputs": [
        {
          "indexed": false,
          "internalType": "bytes32",
          "name": "key",
          "type": "bytes32"
        },
        {
          "indexed": false,
          "internalType": "address",
          "name": "account",
          "type": "address"
        },
        {
          "indexed": false,
          "internalType": "address",
          "name": "collateralToken",
          "type": "address"
        },
        {
          "indexed": false,
          "internalType": "address",
          "name": "indexToken",
          "type": "address"
        },
        {
          "indexed": false,
          "internalType": "enum Side",
          "name": "side",
          "type": "uint8"
        },
        {
          "indexed": false,
          "internalType": "uint256",
          "name": "size",
          "type": "uint256"
        },
        {
          "indexed": false,
          "internalType": "uint256",
          "name": "collateralValue",
          "type": "uint256"
        },
        {
          "indexed": false,
          "internalType": "uint256",
          "name": "reserveAmount",
          "type": "uint256"
        },
        {
          "indexed": false,
          "internalType": "uint256",
          "name": "indexPrice",
          "type": "uint256"
        }
      ],
      "name": "LiquidatePosition",
      "type": "event"
    },
    {
      "anonymous": false,
      "inputs": [
        {
          "indexed": false,
          "internalType": "address",
          "name": "oldOracle",
          "type": "address"
        },
        {
          "indexed": false,
          "internalType": "address",
          "name": "newOracle",
          "type": "address"
        }
      ],
      "name": "OracleChanged",
      "type": "event"
    },
    {
      "anonymous": false,
      "inputs": [
        {
          "indexed": true,
          "internalType": "address",
          "name": "previousOwner",
          "type": "address"
        },
        {
          "indexed": true,
          "internalType": "address",
          "name": "newOwner",
          "type": "address"
        }
      ],
      "name": "OwnershipTransferred",
      "type": "event"
    },
    {
      "anonymous": false,
      "inputs": [
        {
          "indexed": false,
          "internalType": "address",
          "name": "feeDistributor",
          "type": "address"
        }
      ],
      "name": "SetFeeDistributor",
      "type": "event"
    },
    {
      "anonymous": false,
      "inputs": [
        {
          "indexed": false,
          "internalType": "address",
          "name": "orderBook",
          "type": "address"
        }
      ],
      "name": "SetOrderBook",
      "type": "event"
    },
    {
      "anonymous": false,
      "inputs": [
        {
          "indexed": false,
          "internalType": "address",
          "name": "token",
          "type": "address"
        }
      ],
      "name": "TokenWhitelisted",
      "type": "event"
    },
    {
      "anonymous": false,
      "inputs": [
        {
          "indexed": false,
          "internalType": "bytes32",
          "name": "key",
          "type": "bytes32"
        },
        {
          "indexed": false,
          "internalType": "uint256",
          "name": "size",
          "type": "uint256"
        },
        {
          "indexed": false,
          "internalType": "uint256",
          "name": "collateralValue",
          "type": "uint256"
        },
        {
          "indexed": false,
          "internalType": "uint256",
          "name": "entryPrice",
          "type": "uint256"
        },
        {
          "indexed": false,
          "internalType": "uint256",
          "name": "entryInterestRate",
          "type": "uint256"
        },
        {
          "indexed": false,
          "internalType": "uint256",
          "name": "reserveAmount",
          "type": "uint256"
        },
        {
          "indexed": false,
          "internalType": "uint256",
          "name": "indexPrice",
          "type": "uint256"
        }
      ],
      "name": "UpdatePosition",
      "type": "event"
    },
    {
      "anonymous": false,
      "inputs": [
        {
          "indexed": false,
          "internalType": "address",
          "name": "token",
          "type": "address"
        },
        {
          "indexed": false,
          "internalType": "address",
          "name": "recipient",
          "type": "address"
        },
        {
          "indexed": false,
          "internalType": "uint256",
          "name": "amount",
          "type": "uint256"
        }
      ],
      "name": "WithdrawFee",
      "type": "event"
    },
    {
      "inputs": [
        {
          "internalType": "address",
          "name": "token",
          "type": "address"
        },
        {
          "internalType": "uint256",
          "name": "amount",
          "type": "uint256"
        },
        {
          "internalType": "uint256",
          "name": "minLpAmount",
          "type": "uint256"
        },
        {
          "internalType": "address",
          "name": "to",
          "type": "address"
        }
      ],
      "name": "addLiquidity",
      "outputs": [],
      "stateMutability": "payable",
      "type": "function"
    },
    {
      "inputs": [
        {
          "internalType": "address",
          "name": "_token",
          "type": "address"
        }
      ],
      "name": "addToken",
      "outputs": [],
      "stateMutability": "nonpayable",
      "type": "function"
    },
    {
      "inputs": [
        {
          "internalType": "uint256",
          "name": "",
          "type": "uint256"
        }
      ],
      "name": "allWhitelistedTokens",
      "outputs": [
        {
          "internalType": "address",
          "name": "",
          "type": "address"
        }
      ],
      "stateMutability": "view",
      "type": "function"
    },
    {
      "inputs": [
        {
          "internalType": "address",
          "name": "_account",
          "type": "address"
        },
        {
          "internalType": "address",
          "name": "_indexToken",
          "type": "address"
        },
        {
          "internalType": "uint256",
          "name": "_desiredCollateralReduce",
          "type": "uint256"
        },
        {
          "internalType": "uint256",
          "name": "_sizeChanged",
          "type": "uint256"
        },
        {
          "internalType": "enum Side",
          "name": "_side",
          "type": "uint8"
        }
      ],
      "name": "decreasePosition",
      "outputs": [],
      "stateMutability": "nonpayable",
      "type": "function"
    },
    {
      "inputs": [],
      "name": "fee",
      "outputs": [
        {
          "internalType": "uint256",
          "name": "positionFee",
          "type": "uint256"
        },
        {
          "internalType": "uint256",
          "name": "liquidationFee",
          "type": "uint256"
        },
        {
          "internalType": "uint256",
          "name": "adminFee",
          "type": "uint256"
        },
        {
          "internalType": "uint256",
          "name": "interestRate",
          "type": "uint256"
        },
        {
          "internalType": "uint256",
          "name": "accrualInterval",
          "type": "uint256"
        },
        {
          "internalType": "uint256",
          "name": "lastAccrualTimestamp",
          "type": "uint256"
        },
        {
          "internalType": "uint256",
          "name": "cumulativeInterestRate",
          "type": "uint256"
        }
      ],
      "stateMutability": "view",
      "type": "function"
    },
    {
      "inputs": [],
      "name": "feeDistributor",
      "outputs": [
        {
          "internalType": "address",
          "name": "",
          "type": "address"
        }
      ],
      "stateMutability": "view",
      "type": "function"
    },
    {
      "inputs": [],
      "name": "getPoolValue",
      "outputs": [
        {
          "internalType": "uint256",
          "name": "",
          "type": "uint256"
        }
      ],
      "stateMutability": "view",
      "type": "function"
    },
    {
      "inputs": [
        {
          "internalType": "address",
          "name": "_owner",
          "type": "address"
        },
        {
          "internalType": "address",
          "name": "_indexToken",
          "type": "address"
        },
        {
          "internalType": "enum Side",
          "name": "_side",
          "type": "uint8"
        }
      ],
      "name": "getPosition",
      "outputs": [
        {
          "components": [
            {
              "internalType": "uint256",
              "name": "size",
              "type": "uint256"
            },
            {
              "internalType": "uint256",
              "name": "collateralValue",
              "type": "uint256"
            },
            {
              "internalType": "uint256",
              "name": "entryPrice",
              "type": "uint256"
            },
            {
              "internalType": "uint256",
              "name": "pnl",
              "type": "uint256"
            },
            {
              "internalType": "uint256",
              "name": "reserveAmount",
              "type": "uint256"
            },
            {
              "internalType": "bool",
              "name": "hasProfit",
              "type": "bool"
            }
          ],
          "internalType": "struct PositionManager.PositionView",
          "name": "result",
          "type": "tuple"
        }
      ],
      "stateMutability": "view",
      "type": "function"
    },
    {
      "inputs": [
        {
          "internalType": "address",
          "name": "_account",
          "type": "address"
        },
        {
          "internalType": "address",
          "name": "_indexToken",
          "type": "address"
        },
        {
          "internalType": "uint256",
          "name": "_sizeChanged",
          "type": "uint256"
        },
        {
          "internalType": "enum Side",
          "name": "_side",
          "type": "uint8"
        }
      ],
      "name": "increasePosition",
      "outputs": [],
      "stateMutability": "nonpayable",
      "type": "function"
    },
    {
      "inputs": [
        {
          "internalType": "address",
          "name": "_lpToken",
          "type": "address"
        },
        {
          "internalType": "address",
          "name": "_stableToken",
          "type": "address"
        },
        {
          "internalType": "uint256",
          "name": "_positionFee",
          "type": "uint256"
        },
        {
          "internalType": "uint256",
          "name": "_liquidationFee",
          "type": "uint256"
        },
        {
          "internalType": "uint256",
          "name": "_adminFee",
          "type": "uint256"
        },
        {
          "internalType": "uint256",
          "name": "_interestRate",
          "type": "uint256"
        },
        {
          "internalType": "uint256",
          "name": "_accrualInterval",
          "type": "uint256"
        }
      ],
      "name": "initialize",
      "outputs": [],
      "stateMutability": "nonpayable",
      "type": "function"
    },
    {
      "inputs": [
        {
          "internalType": "address",
          "name": "_account",
          "type": "address"
        },
        {
          "internalType": "address",
          "name": "_indexToken",
          "type": "address"
        },
        {
          "internalType": "enum Side",
          "name": "_side",
          "type": "uint8"
        }
      ],
      "name": "liquidatePosition",
      "outputs": [],
      "stateMutability": "nonpayable",
      "type": "function"
    },
    {
      "inputs": [
        {
          "internalType": "address",
          "name": "",
          "type": "address"
        }
      ],
      "name": "maxLeverages",
      "outputs": [
        {
          "internalType": "uint256",
          "name": "",
          "type": "uint256"
        }
      ],
      "stateMutability": "view",
      "type": "function"
    },
    {
      "inputs": [],
      "name": "oracle",
      "outputs": [
        {
          "internalType": "contract IOracle",
          "name": "",
          "type": "address"
        }
      ],
      "stateMutability": "view",
      "type": "function"
    },
    {
      "inputs": [],
      "name": "orderBook",
      "outputs": [
        {
          "internalType": "address",
          "name": "",
          "type": "address"
        }
      ],
      "stateMutability": "view",
      "type": "function"
    },
    {
      "inputs": [],
      "name": "owner",
      "outputs": [
        {
          "internalType": "address",
          "name": "",
          "type": "address"
        }
      ],
      "stateMutability": "view",
      "type": "function"
    },
    {
      "inputs": [
        {
          "internalType": "address",
          "name": "",
          "type": "address"
        }
      ],
      "name": "poolAssets",
      "outputs": [
        {
          "internalType": "uint256",
          "name": "poolAmount",
          "type": "uint256"
        },
        {
          "internalType": "uint256",
          "name": "reservedAmount",
          "type": "uint256"
        },
        {
          "internalType": "uint256",
          "name": "feeReserve",
          "type": "uint256"
        },
        {
          "internalType": "uint256",
          "name": "guaranteedValue",
          "type": "uint256"
        },
        {
          "internalType": "uint256",
          "name": "totalShortSize",
          "type": "uint256"
        },
        {
          "internalType": "uint256",
          "name": "averageShortPrice",
          "type": "uint256"
        },
        {
          "internalType": "uint256",
          "name": "poolBalance",
          "type": "uint256"
        }
      ],
      "stateMutability": "view",
      "type": "function"
    },
    {
      "inputs": [
        {
          "internalType": "bytes32",
          "name": "",
          "type": "bytes32"
        }
      ],
      "name": "positions",
      "outputs": [
        {
          "internalType": "uint256",
          "name": "size",
          "type": "uint256"
        },
        {
          "internalType": "uint256",
          "name": "collateralValue",
          "type": "uint256"
        },
        {
          "internalType": "uint256",
          "name": "reserveAmount",
          "type": "uint256"
        },
        {
          "internalType": "uint256",
          "name": "entryPrice",
          "type": "uint256"
        },
        {
          "internalType": "uint256",
          "name": "entryInterestRate",
          "type": "uint256"
        }
      ],
      "stateMutability": "view",
      "type": "function"
    },
    {
      "inputs": [
        {
          "internalType": "address",
          "name": "tokenOut",
          "type": "address"
        },
        {
          "internalType": "uint256",
          "name": "lpAmount",
          "type": "uint256"
        },
        {
          "internalType": "uint256",
          "name": "minOut",
          "type": "uint256"
        },
        {
          "internalType": "address",
          "name": "to",
          "type": "address"
        }
      ],
      "name": "removeLiquidity",
      "outputs": [],
      "stateMutability": "nonpayable",
      "type": "function"
    },
    {
      "inputs": [],
      "name": "renounceOwnership",
      "outputs": [],
      "stateMutability": "nonpayable",
      "type": "function"
    },
    {
      "inputs": [
        {
          "internalType": "uint256",
          "name": "_positionFee",
          "type": "uint256"
        },
        {
          "internalType": "uint256",
          "name": "_liquidationFee",
          "type": "uint256"
        },
        {
          "internalType": "uint256",
          "name": "_adminFee",
          "type": "uint256"
        },
        {
          "internalType": "uint256",
          "name": "_interestRatePerYear",
          "type": "uint256"
        },
        {
          "internalType": "uint256",
          "name": "_accrualInterval",
          "type": "uint256"
        }
      ],
      "name": "setFee",
      "outputs": [],
      "stateMutability": "nonpayable",
      "type": "function"
    },
    {
      "inputs": [
        {
          "internalType": "address",
          "name": "_feeDistributor",
          "type": "address"
        }
      ],
      "name": "setFeeDistributor",
      "outputs": [],
      "stateMutability": "nonpayable",
      "type": "function"
    },
    {
      "inputs": [
        {
          "internalType": "address",
          "name": "_oracle",
          "type": "address"
        }
      ],
      "name": "setOracle",
      "outputs": [],
      "stateMutability": "nonpayable",
      "type": "function"
    },
    {
      "inputs": [
        {
          "internalType": "address",
          "name": "_orderBook",
          "type": "address"
        }
      ],
      "name": "setOrderBook",
      "outputs": [],
      "stateMutability": "nonpayable",
      "type": "function"
    },
    {
      "inputs": [],
      "name": "stableToken",
      "outputs": [
        {
          "internalType": "address",
          "name": "",
          "type": "address"
        }
      ],
      "stateMutability": "view",
      "type": "function"
    },
    {
      "inputs": [
        {
          "internalType": "address",
          "name": "newOwner",
          "type": "address"
        }
      ],
      "name": "transferOwnership",
      "outputs": [],
      "stateMutability": "nonpayable",
      "type": "function"
    },
    {
      "inputs": [
        {
          "internalType": "address",
          "name": "_indexToken",
          "type": "address"
        },
        {
          "internalType": "enum Side",
          "name": "_side",
          "type": "uint8"
        },
        {
          "internalType": "address",
          "name": "_collateralToken",
          "type": "address"
        }
      ],
      "name": "validateToken",
      "outputs": [
        {
          "internalType": "bool",
          "name": "",
          "type": "bool"
        }
      ],
      "stateMutability": "view",
      "type": "function"
    },
    {
      "inputs": [
        {
          "internalType": "address",
          "name": "",
          "type": "address"
        }
      ],
      "name": "whitelistedTokens",
      "outputs": [
        {
          "internalType": "bool",
          "name": "",
          "type": "bool"
        }
      ],
      "stateMutability": "view",
      "type": "function"
    },
    {
      "inputs": [
        {
          "internalType": "address",
          "name": "_token",
          "type": "address"
        },
        {
          "internalType": "address",
          "name": "_recipient",
          "type": "address"
        }
      ],
      "name": "withdrawFee",
      "outputs": [],
      "stateMutability": "nonpayable",
      "type": "function"
    }
  ],
  "bytecode": {
    "object": "0x60806040523480156200001157600080fd5b506200001d3362000027565b6001805562000082565b600080546001600160a01b038381166201000081810262010000600160b01b0319851617855560405193049190911692909183917f8be0079c531659141344cd1fd0a4f28419497f9722a3daafe3b4186f6b6457e091a35050565b613dc480620000926000396000f3fe6080604052600436106101b75760003560e01c8063a2e00d63116100ec578063ddca3f431161008a578063edbf4ac211610064578063edbf4ac2146105ca578063f2fde38b146105ea578063faa4aaf31461060a578063fd5e2ef51461062a57600080fd5b8063ddca3f43146104e9578063e468baf01461054d578063e980f9451461056d57600080fd5b8063c879c6d8116100c6578063c879c6d814610459578063ccfc2e8d14610479578063d48bfca714610499578063daf9c210146104b957600080fd5b8063a2e00d63146103f9578063a9d75b2b14610419578063b19c3b6f1461043957600080fd5b8063776af5ba1161015957806381071e681161013357806381071e68146103755780638da5cb5b146103955780638fed0b2c146103b95780639a1598c8146103d957600080fd5b8063776af5ba146103155780637adbf973146103355780637dc0d1d01461035557600080fd5b80634428fd11116101955780634428fd1114610231578063514ea4bf14610261578063715018a6146102d357806373e813c2146102e857600080fd5b80630d43e8ad146101bc57806312fef692146101f95780631ba2f5311461020e575b600080fd5b3480156101c857600080fd5b506012546101dc906001600160a01b031681565b6040516001600160a01b0390911681526020015b60405180910390f35b61020c6102073660046137f4565b610698565b005b34801561021a57600080fd5b5061022361079f565b6040519081526020016101f0565b34801561023d57600080fd5b5061025161024c366004613849565b6107ae565b60405190151581526020016101f0565b34801561026d57600080fd5b506102ab61027c36600461388c565b600f60205260009081526040902080546001820154600283015460038401546004909401549293919290919085565b604080519586526020860194909452928401919091526060830152608082015260a0016101f0565b3480156102df57600080fd5b5061020c6107d7565b3480156102f457600080fd5b506102236103033660046138a5565b60106020526000908152604090205481565b34801561032157600080fd5b506011546101dc906001600160a01b031681565b34801561034157600080fd5b5061020c6103503660046138a5565b6107eb565b34801561036157600080fd5b506002546101dc906001600160a01b031681565b34801561038157600080fd5b5061020c6103903660046138c0565b6108aa565b3480156103a157600080fd5b506000546201000090046001600160a01b03166101dc565b3480156103c557600080fd5b5061020c6103d43660046137f4565b610bf9565b3480156103e557600080fd5b5061020c6103f43660046138a5565b610ec1565b34801561040557600080fd5b5061020c610414366004613917565b610f7e565b34801561042557600080fd5b506003546101dc906001600160a01b031681565b34801561044557600080fd5b5061020c610454366004613952565b610fa4565b34801561046557600080fd5b5061020c610474366004613994565b6111e7565b34801561048557600080fd5b5061020c6104943660046138a5565b6112d1565b3480156104a557600080fd5b5061020c6104b43660046138a5565b61137d565b3480156104c557600080fd5b506102516104d43660046138a5565b60046020526000908152604090205460ff1681565b3480156104f557600080fd5b50600854600954600a54600b54600c54600d54600e546105189695949392919087565b604080519788526020880196909652948601939093526060850191909152608084015260a083015260c082015260e0016101f0565b34801561055957600080fd5b506101dc61056836600461388c565b611484565b34801561057957600080fd5b506105186105883660046138a5565b60066020528060005260406000206000915090508060000154908060010154908060020154908060030154908060040154908060050154908060060154905087565b3480156105d657600080fd5b5061020c6105e53660046139c7565b6114ae565b3480156105f657600080fd5b5061020c6106053660046138a5565b6115e1565b34801561061657600080fd5b5061020c610625366004613a25565b61165a565b34801561063657600080fd5b5061064a610645366004613a25565b6118c4565b6040516101f09190600060c082019050825182526020830151602083015260408301516040830152606083015160608301526080830151608083015260a0830151151560a083015292915050565b6002600154036106ef5760405162461bcd60e51b815260206004820152601f60248201527f5265656e7472616e637947756172643a207265656e7472616e742063616c6c0060448201526064015b60405180910390fd5b60026001556106fd846119d2565b6001600160a01b03841673eeeeeeeeeeeeeeeeeeeeeeeeeeeeeeeeeeeeeeee1461073b576107366001600160a01b038516333086611a46565b61078a565b82341461078a5760405162461bcd60e51b815260206004820181905260248201527f41737365744d616e616765723a20696e76616c69642076616c75652073656e7460448201526064016106e6565b610795848383611ab7565b5050600180555050565b60006107a9611baf565b905090565b60006107ba8385611cae565b6001600160a01b0316826001600160a01b03161490509392505050565b6107df611dc9565b6107e96000611e2a565b565b6107f3611dc9565b6001600160a01b0381166108495760405162461bcd60e51b815260206004820152601a60248201527f4c69717569646974794d616e616765723a3a616464726573733000000000000060448201526064016106e6565b600280546001600160a01b038381166001600160a01b031983168117909355604080519190921680825260208201939093527f05cd89403c6bdeac21c2ff33de395121a31fa1bc2bf3adf4825f1f86e79969dd910160405180910390a15050565b6011546001600160a01b031633146108d45760405162461bcd60e51b81526004016106e690613a5f565b6108de6008611e85565b60006108ea8286611cae565b905060006108f786611f31565b9050600061090483611f31565b905060006109148989868861200a565b6000818152600f60209081526040808320815160e081018352600854815260095493810193909352600a5491830191909152600b546060830152600c546080830152600d5460a0830152600e5460c0830152929350610979908390898b8d8a8a612044565b60208082015160608301516001600160a01b038a166000908152600690935260409092209293506109aa9291612081565b60008760018111156109be576109be613aa6565b036109fc578051608082015160608301516001600160a01b03891660009081526006602052604090206109f793909290918c919061210e565b610a23565b60a08101516001600160a01b038b166000908152600660205260409020610a23918a612157565b8154600003610b2257600f6000848152602001908152602001600020600080820160009055600182016000905560028201600090556003820160009055600482016000905550507f3d62fa673fece8dcab6faee9430a80ce501ce02d3779dfc54c55718d50aca76a838c888d85600001518d8d8c604051610aab989796959493929190613ade565b60405180910390a1815460018301546003840154600485015460028601546040805189815260208101969096528501939093526060840191909152608083015260a08201527f57646b4faf64a91c1ad76512fe716b11edf1056115e03bd65877e0640570ffb59060c00160405180910390a1610bdd565b7f3d62fa673fece8dcab6faee9430a80ce501ce02d3779dfc54c55718d50aca76a838c888d85600001518d8d8c604051610b63989796959493929190613ade565b60405180910390a1815460018301546003840154600485015460028601546040805189815260208101969096528501939093526060840191909152608083015260a082015260c081018690527f569f4ef16f93b9d0b6625dcd44e8eb6e6ca8db330ee738654cd9fd57461499c79060e00160405180910390a15b610bec868c83608001516121a7565b5050505050505050505050565b600260015403610c4b5760405162461bcd60e51b815260206004820152601f60248201527f5265656e7472616e637947756172643a207265656e7472616e742063616c6c0060448201526064016106e6565b6002600155610c59846119d2565b60008311610ca95760405162461bcd60e51b815260206004820152601f60248201527f41737365744d616e616765723a204c5020616d6f756e74206973207a65726f0060448201526064016106e6565b6000610cb3611baf565b90506000600760009054906101000a90046001600160a01b03166001600160a01b03166318160ddd6040518163ffffffff1660e01b8152600401602060405180830381865afa158015610d0a573d6000803e3d6000fd5b505050506040513d601f19601f82011682018060405250810190610d2e9190613b33565b6002546040516341976e0960e01b81526001600160a01b038981166004830152929350600092909116906341976e0990602401602060405180830381865afa158015610d7e573d6000803e3d6000fd5b505050506040513d601f19601f82011682018060405250810190610da29190613b33565b905060008183610db2868a613b62565b610dbc9190613b97565b610dc69190613b97565b905085811015610e185760405162461bcd60e51b815260206004820152601a60248201527f4c69717569646974794d616e616765723a3a736c69707061676500000000000060448201526064016106e6565b6001600160a01b0388166000908152600660205260409020610e3a90826121f9565b60075460405163079cc67960e41b8152336004820152602481018990526001600160a01b03909116906379cc679090604401600060405180830381600087803b158015610e8657600080fd5b505af1158015610e9a573d6000803e3d6000fd5b50610eb3925050506001600160a01b038916868361227a565b505060018055505050505050565b610ec9611dc9565b6001600160a01b038116610f295760405162461bcd60e51b815260206004820152602160248201527f5661756c743a20696e76616c6964206f7264657220626f6f6b206164647265736044820152607360f81b60648201526084016106e6565b601180546001600160a01b0319166001600160a01b0383169081179091556040519081527f583d5a8a640dd23e92c793dba00c959d15eaf43d4530f3bbf15229c80869d23c906020015b60405180910390a150565b610f86611dc9565b600c819055600b829055610f9d60088686866122c9565b5050505050565b6011546001600160a01b03163314610fce5760405162461bcd60e51b81526004016106e690613a5f565b610fd86008611e85565b6000610fe48285611cae565b90506000610ff185611f31565b90506000610ffe83611f31565b9050600061100b8461232d565b9050600061101b8989878961200a565b6000818152600f60209081526040808320815160e081018352600854815260095493810193909352600a5491830191909152600b546060830152600c546080830152600d5460a0830152600e5460c08301529293506110809083908a8c888b8b612399565b805160608201516001600160a01b038a1660009081526006602052604090209293506110ad92919061251e565b60008860018111156110c1576110c1613aa6565b036111015760208082015160608301516040808501516001600160a01b038c166000908152600690955293206110fc9390928d9289926125ae565b611124565b6001600160a01b038a166000908152600660205260409020611124908a88612601565b7f1e2ac569cb754ae6e6806f05b9fca46b0497628abd4636d25bb188e5b8d51523838c898d888e8e8d604051611161989796959493929190613ade565b60405180910390a1815460018301546003840154600485015460028601546040805189815260208101969096528501939093526060840191909152608083015260a082015260c081018790527f569f4ef16f93b9d0b6625dcd44e8eb6e6ca8db330ee738654cd9fd57461499c79060e00160405180910390a15050505050505050505050565b6012546001600160a01b0316331461124d5760405162461bcd60e51b815260206004820152602360248201527f5661756c743a206f6e6c7920666565206469737472696275746f7220616c6c6f6044820152621dd95960ea1b60648201526084016106e6565b611256826119d2565b6001600160a01b038216600090815260066020526040812060020180549190556112818383836121a7565b604080516001600160a01b038086168252841660208201529081018290527ff15a0a3784dea9b4fe33bc98e2450745e262d310237b2868ea8ef56967ff3ecb9060600160405180910390a1505050565b6112d9611dc9565b6001600160a01b03811661132f5760405162461bcd60e51b815260206004820152601e60248201527f5661756c743a20696e76616c696420666565206469737472696275746f72000060448201526064016106e6565b601280546001600160a01b0319166001600160a01b0383169081179091556040519081527f9e9a9a4a82acd1b28aab6bf1d43aad70ae6d290549c0d6183e2e91ebcdf5744190602001610f73565b611385611dc9565b6001600160a01b03811660009081526004602052604090205460ff16156113ee5760405162461bcd60e51b815260206004820181905260248201527f41737365744d616e616765723a20746f6b656e20616c7265616420616464656460448201526064016106e6565b6001600160a01b0381166000818152600460209081526040808320805460ff191660019081179091556005805491820181559093527f036b6384b5eca791c62761152d0c79bb0604c104a5fb6f4eb0703f3154bb3db090920180546001600160a01b0319168417905590519182527f6a65f90b1a644d2faac467a21e07e50e3f8fa5846e26231d30ae79a417d3d2629101610f73565b6005818154811061149457600080fd5b6000918252602090912001546001600160a01b0316905081565b600054610100900460ff16158080156114ce5750600054600160ff909116105b806114e85750303b1580156114e8575060005460ff166001145b61154b5760405162461bcd60e51b815260206004820152602e60248201527f496e697469616c697a61626c653a20636f6e747261637420697320616c72656160448201526d191e481a5b9a5d1a585b1a5e995960921b60648201526084016106e6565b6000805460ff19166001179055801561156e576000805461ff0019166101001790555b6115788888612637565b60088690556009859055600a849055600b839055600c82905580156115d7576000805461ff0019169055604051600181527f7f26b83ff96e1f2b6a682f133852f6798a09c465da95921460cefb38474024989060200160405180910390a15b5050505050505050565b6115e9611dc9565b6001600160a01b03811661164e5760405162461bcd60e51b815260206004820152602660248201527f4f776e61626c653a206e6577206f776e657220697320746865207a65726f206160448201526564647265737360d01b60648201526084016106e6565b61165781611e2a565b50565b6011546001600160a01b031633146116845760405162461bcd60e51b81526004016106e690613a5f565b61168e6008611e85565b600061169a8284611cae565b905060006116a784611f31565b905060006116b483611f31565b905060006116c48787868861200a565b6000818152600f60209081526040808320815160e081018352600854815260095493810193909352600a5491830191909152600b546060830152600c546080830152600d5460a0830152600e5460c083015292935061172790839089888861278b565b604080820151815160e08101835260085481526009546020820152600a5492810192909252600b546060830152600c546080830152600d5460a0830152600e5460c0830152919250600091869161177d91612835565b6117879190613b97565b60028401546001600160a01b03891660009081526006602052604090209192506117b2919083612081565b60008860018111156117c6576117c6613aa6565b036117fd57825460018401546001600160a01b03891660009081526006602052604081206117f893909290918561210e565b611827565b60a082015183546001600160a01b038b166000908152600660205260409020611827929091612157565b600f6000858152602001908152602001600020600080820160009055600182016000905560028201600090556003820160009055600482016000905550507f8c0d7a833ebdf1ccfc16ef348f74ca4fb7d6f3df5a3ca58a3c372e206a61c100848b898c8c886000015489600101548a600201548e6040516118b099989796959493929190613bab565b60405180910390a150505050505050505050565b6118ff6040518060c0016040528060008152602001600081526020016000815260200160008152602001600081526020016000151581525090565b600061190b8385611cae565b9050600061191b8686848761200a565b6000818152600f60209081526040808320815160a081018352815481526001820154938101939093526002810154918301919091526003810154606083015260040154608082015291925061196f87611f31565b9050600061198787846000015185606001518561285e565b8351875260208085015181890152810151606088015290506119aa8160006128e0565b151560a087015250506060810151604080860191909152015160808401525090949350505050565b6001600160a01b03811660009081526004602052604090205460ff166116575760405162461bcd60e51b8152602060048201526024808201527f436f6e66696775726174696f6e3a20746f6b656e206e6f742077686974656c696044820152631cdd195960e21b60648201526084016106e6565b6040516001600160a01b0380851660248301528316604482015260648101829052611ab19085906323b872dd60e01b906084015b60408051601f198184030181529190526020810180516001600160e01b03166001600160e01b0319909316929092179091526128f4565b50505050565b6000611ac28461232d565b905080600003611ad25750505050565b6000611ade85836129c6565b905083811015611b275760405162461bcd60e51b81526020600482015260146024820152734c504d616e616765723a3a3e736c69707061676560601b60448201526064016106e6565b6007546040516340c10f1960e01b81526001600160a01b03858116600483015260248201849052909116906340c10f1990604401600060405180830381600087803b158015611b7557600080fd5b505af1158015611b89573d6000803e3d6000fd5b5050506001600160a01b0386166000908152600660205260409020610f9d915083612b5b565b600080611bbc6000612b78565b905060005b600554811015611c9e57600060058281548110611be057611be0613c06565b60009182526020808320909101546001600160a01b0316808352600490915260409091205490915060ff16611c1757611c17613c1c565b6001600160a01b038116600090815260066020526040812090611c3983611f31565b6003549091506001600160a01b0390811690841603611c71578154611c6a90611c63908390613b62565b8690612ba1565b9450611c88565b611c85611c7e8383612bc7565b8690612c4e565b94505b5050508080611c9690613c32565b915050611bc1565b50611ca881612d24565b91505090565b6001600160a01b03811660009081526004602052604081205460ff16611d255760405162461bcd60e51b815260206004820152602660248201527f506f736974696f6e4d616e616765723a206f6e6c7957686974656c6973746564604482015265546f6b656e7360d01b60648201526084016106e6565b6000836001811115611d3957611d39613aa6565b03611db5576003546001600160a01b0390811690831603611dae5760405162461bcd60e51b815260206004820152602960248201527f506f736974696f6e4d616e616765723a2063616e6e6f74206c6f6e6720737461604482015268313632903a37b5b2b760b91b60648201526084016106e6565b5080611dc3565b506003546001600160a01b03165b92915050565b6000546001600160a01b03620100009091041633146107e95760405162461bcd60e51b815260206004820181905260248201527f4f776e61626c653a2063616c6c6572206973206e6f7420746865206f776e657260448201526064016106e6565b600080546001600160a01b038381166201000081810262010000600160b01b0319851617855560405193049190911692909183917f8be0079c531659141344cd1fd0a4f28419497f9722a3daafe3b4186f6b6457e091a35050565b60058101544290600003611e9b57600590910155565b8082600401548360050154611eb09190613c4b565b1115611eba575050565b60008260040154836005015483611ed19190613c63565b611edb9190613b97565b9050826003015481611eed9190613b62565b836006016000828254611f009190613c4b565b90915550506004830154611f149082613b62565b836005016000828254611f279190613c4b565b9091555050505050565b6002546040516341976e0960e01b81526001600160a01b03838116600483015260009216906341976e0990602401602060405180830381865afa158015611f7c573d6000803e3d6000fd5b505050506040513d601f19601f82011682018060405250810190611fa09190613b33565b9050600081116120055760405162461bcd60e51b815260206004820152602a60248201527f506f736974696f6e4d616e616765723a20746f6b656e207072696365206e6f7460448201526920617661696c61626c6560b01b60648201526084016106e6565b919050565b6000848484846040516020016120239493929190613c7a565b6040516020818303038152906040528051906020012090505b949350505050565b61204c61378d565b61205b88888888888888612d78565b905061206a886000601e612fc3565b61207688888886613078565b979650505050505050565b81836001015410156120df5760405162461bcd60e51b815260206004820152602160248201527f506f736974696f6e3a20726573657276652072656475636520746f6f206d75636044820152600d60fb1b60648201526084016106e6565b818360010160008282546120f39190613c63565b9250508190555080836002016000828254611f279190613c4b565b8284866003015461211f9190613c4b565b6121299190613c63565b60038601556121388183613c4b565b85600001600082825461214b9190613c63565b90915550505050505050565b8254600090612167908490612ba1565b905061217281511590565b612180578060200151612183565b60005b845560048401805483919060009061219c908490613c63565b909155505050505050565b80156121f457826121c26001600160a01b038216848461227a565b6121d56001600160a01b038216306130d0565b6001600160a01b03851660009081526006602081905260409091200155505b505050565b8082600001600082825461220d9190613c63565b90915550506001820154825410156122765760405162461bcd60e51b815260206004820152602660248201527f506f6f6c41737365743a2072656475636520706f6f6c20616d6f756e7420746f6044820152650de40daeac6d60d31b60648201526084016106e6565b5050565b8060000361228757505050565b73eeeeeeeeeeeeeeeeeeeeeeeeeeeeeeeeeeeeeeee6001600160a01b038416036122b5576121f48282613171565b6121f46001600160a01b038416838361323a565b6305f5e10083111561231d5760405162461bcd60e51b815260206004820152601e60248201527f4665653a206d617820706f736974696f6e20666565206578636565646564000060448201526064016106e6565b9183556001830155600290910155565b6000612338826119d2565b600061234d6001600160a01b038416306130d0565b6001600160a01b038416600090815260066020819052604090912001549091506123779082613c63565b6001600160a01b03909316600090815260066020819052604090912001555090565b6123c46040518060800160405280600081526020016000815260200160008152602001600081525090565b6123ce8483613b62565b60208201526123dd878661326a565b600489015489546123ef918a91613280565b6123f99190613c4b565b60408201819052829061240d908990612835565b6124179190613b97565b60608201526040810151602082015160018a01546124359190613c4b565b1161248e5760405162461bcd60e51b8152602060048201526024808201527f506f736974696f6e3a20696e637265617365206361757365206c6971756964616044820152633a34b7b760e11b60648201526084016106e6565b6124988386613b97565b8152875460038901546124af9188918890876132ac565b60038901556040810151602082015160018a01546124cd9190613c4b565b6124d79190613c63565b600189015587546124e9908690613c4b565b885560c08701516004890155805160028901805460009061250b908490613c4b565b9091555061206a9050886000601e612fc3565b818360010160008282546125329190613c4b565b909155505082546001840154111561259a5760405162461bcd60e51b815260206004820152602560248201527f506f6f6c41737365743a20726573657276652065786365656420706f6f6c20616044820152641b5bdd5b9d60da1b60648201526084016106e6565b80836002016000828254611f279190613c4b565b855482906125bd908690613c4b565b6125c79190613c63565b86556003860154839082906125dd908890613c4b565b6125e79190613c4b565b6125f19190613c63565b8660030181905550505050505050565b600483015460058401546126196001838684876132ac565b60058601556126288483613c4b565b85600401819055505050505050565b6001600160a01b0381166126a05760405162461bcd60e51b815260206004820152602a60248201527f41737365744d616e616765723a20696e76616c696420737461626c6520746f6b604482015269656e206164647265737360b01b60648201526084016106e6565b6001600160a01b0382166127055760405162461bcd60e51b815260206004820152602660248201527f41737365744d616e616765723a20696e76616c6964204c5020746f6b656e206160448201526564647265737360d01b60648201526084016106e6565b6001600160a01b039081166000818152600460205260408120805460ff191660019081179091556005805491820181559091527f036b6384b5eca791c62761152d0c79bb0604c104a5fb6f4eb0703f3154bb3db00180546001600160a01b0319908116831790915560038054821690921790915560078054939092169216919091179055565b61279361378d565b60006127a187878787613343565b5050509050806127f35760405162461bcd60e51b815260206004820152601b60248201527f506f736974696f6e3a2063616e206e6f74206c6971756964617465000000000060448201526064016106e6565b6128078787878a6000015460008989612d78565b87549092501561281957612819613c1c565b60018701541561282b5761282b613c1c565b5095945050505050565b60006402540be40083604001518361284d9190613b62565b6128579190613b97565b9392505050565b60408051808201909152600080825260208201528360000361288b576128846000612b78565b905061203c565b600085600181111561289f5761289f613aa6565b036128cb57612884836128c5866128bf876128b988612b78565b9061340c565b90613432565b90613458565b612884836128c5866128bf866128b989612b78565b6000612857836128ef84612b78565b61347e565b6000612949826040518060400160405280602081526020017f5361666545524332303a206c6f772d6c6576656c2063616c6c206661696c6564815250856001600160a01b031661349a9092919063ffffffff16565b8051909150156121f457808060200190518101906129679190613cdd565b6121f45760405162461bcd60e51b815260206004820152602a60248201527f5361666545524332303a204552433230206f7065726174696f6e20646964206e6044820152691bdd081cdd58d8d9595960b21b60648201526084016106e6565b6002546040516341976e0960e01b81526001600160a01b03848116600483015260009283929116906341976e0990602401602060405180830381865afa158015612a14573d6000803e3d6000fd5b505050506040513d601f19601f82011682018060405250810190612a389190613b33565b905060008111612a7e5760405162461bcd60e51b815260206004820152601160248201527070726963654e6f74417661696c61626c6560781b60448201526064016106e6565b6000612a88611baf565b90506000600760009054906101000a90046001600160a01b03166001600160a01b03166318160ddd6040518163ffffffff1660e01b8152600401602060405180830381865afa158015612adf573d6000803e3d6000fd5b505050506040513d601f19601f82011682018060405250810190612b039190613b33565b905080600003612b315764e8d4a51000612b1d8487613b62565b612b279190613b97565b9350505050611dc3565b8181612b3d8588613b62565b612b479190613b62565b612b519190613b97565b9695505050505050565b80826000016000828254612b6f9190613c4b565b90915550505050565b604080518082018252600080825260209182015281518083019092526001825281019190915290565b604080518082019091526000808252602082015261285783612bc284612b78565b612c4e565b604080518082019091526000808252602082015260008360040154600014612c0f57612c0a84600501546128c586600401546128bf876128b98a60050154612b78565b612c19565b612c196000612b78565b9050612c428460030154612c3c856128bf88600101546128b98a60000154612b78565b90612ba1565b915061203c82826134a9565b60408051808201909152600080825260208201528151835103612c9d5760405180604001604052808460000151815260200183602001518560200151612c949190613c4b565b90529050611dc3565b8160200151836020015103612cc657506040805180820190915260008082526020820152611dc3565b6000808360200151856020015111612cf357835160208087015190860151612cee9190613c63565b612d09565b845160208086015190870151612d099190613c63565b60408051808201909152918252602082015295945050505050565b8051600090600114612d705760405162461bcd60e51b81526020600482015260156024820152745369676e6564496e743a2062656c6f77207a65726f60581b60448201526064016106e6565b506020015190565b612d8061378d565b8754851115612dd15760405162461bcd60e51b815260206004820152601b60248201527f506f736974696f6e3a20646563726561736520746f6f206d756368000000000060448201526064016106e6565b8388600101541015612e315760405162461bcd60e51b8152602060048201526024808201527f506f736974696f6e3a2072656475636520636f6c6c61746572616c20746f6f206044820152630daeac6d60e31b60648201526084016106e6565b87546002890154612e43908790613b62565b612e4d9190613b97565b602082015283612e785787546001890154612e69908790613b62565b612e739190613b97565b612e7a565b835b9350612e8c86868a600301548661285e565b60a0820152612e9b878661326a565b60048901548954612ead918a91613280565b612eb79190613c4b565b604082018190528290612ecb908990612835565b612ed59190613b97565b6060820152604081015160a0820151600091612ef5916128b99088612ba1565b90506000612f0a866128b98c60010154612b78565b9050612f1582511590565b15612f2757612f248183612c4e565b90505b6000612f3282511590565b612f40578160200151612f43565b60005b9050808b60010154612f559190613c63565b845260018b018190558a54612f6b908990613c63565b8b5560c08a015160048c0155602084015160028c0154612f8b9190613c63565b60028c0155825115612fac57848360200151612fa79190613b97565b612faf565b60005b608085015250919998505050505050505050565b6001830154835410156130185760405162461bcd60e51b815260206004820152601a60248201527f506f736974696f6e3a20696e76616c6964206c6576657261676500000000000060448201526064016106e6565b8083600101546130289190613b62565b835411156121f45760405162461bcd60e51b815260206004820152601f60248201527f504f534954494f4e3a206d6178206c657665726167652065786365656465640060448201526064016106e6565b600061308685858585613343565b50505090508015610f9d5760405162461bcd60e51b8152602060048201526014602482015273141bdcda5d1a5bdb8e881b1a5c5d5a59185d195960621b60448201526064016106e6565b600073eeeeeeeeeeeeeeeeeeeeeeeeeeeeeeeeeeeeeeee6001600160a01b0384160361310757506001600160a01b03811631611dc3565b6040516370a0823160e01b81526001600160a01b0383811660048301528416906370a0823190602401602060405180830381865afa15801561314d573d6000803e3d6000fd5b505050506040513d601f19601f820116820180604052508101906128579190613b33565b604080516000808252602082019092526001600160a01b03841690839060405161319b9190613d2b565b60006040518083038185875af1925050503d80600081146131d8576040519150601f19603f3d011682016040523d82523d6000602084013e6131dd565b606091505b50509050806121f45760405162461bcd60e51b815260206004820152602360248201527f5472616e7366657248656c7065723a204554485f5452414e534645525f46414960448201526213115160ea1b60648201526084016106e6565b6040516001600160a01b0383166024820152604481018290526121f490849063a9059cbb60e01b90606401611a7a565b81516000906402540be4009061284d9084613b62565b60006402540be400838560c001516132989190613c63565b6132a29084613b62565b61203c9190613b97565b6000846000036132bd57508061333a565b60006132cb8787868661285e565b905060006132e16132dc8789613c4b565b612b78565b90506000808960018111156132f8576132f8613aa6565b1461330c5761330782846134a9565b613316565b6133168284612c4e565b905061333461332f826133298589613432565b906134ca565b612d24565b93505050505b95945050505050565b6000806000613365604051806040016040528060008152602001600081525090565b8754613372908890613537565b885461337f90899061326a565b60048a01548a54613391918b91613280565b61339b9190613c4b565b6133a59190613c4b565b92506133bb8689600001548a600301548861285e565b905060006133da846128b98b6001015485612ba190919063ffffffff16565b90506133e581511590565b6133f557600081602001516133fa565b600160005b909a9499509750909550919350505050565b60408051808201909152600080825260208201526128578361342d84612b78565b6134a9565b60408051808201909152600080825260208201526128578361345384612b78565b61354f565b60408051808201909152600080825260208201526128578361347984612b78565b6134ca565b8051825160009110806128575750506020908101519101511090565b606061203c84846000856135d1565b604080518082019091526000808252602082015261285783612bc2846136a1565b60408051808201909152600080825260208201819052825184516002916134f091613c4b565b6134fb906001613c4b565b6135059190613d47565b905060008360200151856020015161351d9190613b97565b604080518082019091529283526020830152509392505050565b60006402540be40083602001518361284d9190613b62565b604080518082019091526000808252602082018190528251845160029161357591613c4b565b613580906001613c4b565b61358a9190613d47565b90506000836020015185602001516135a29190613b62565b90506040518060400160405280826000146135bd57836135c0565b60015b815260200191909152949350505050565b6060824710156136325760405162461bcd60e51b815260206004820152602660248201527f416464726573733a20696e73756666696369656e742062616c616e636520666f6044820152651c8818d85b1b60d21b60648201526084016106e6565b600080866001600160a01b0316858760405161364e9190613d2b565b60006040518083038185875af1925050503d806000811461368b576040519150601f19603f3d011682016040523d82523d6000602084013e613690565b606091505b5091509150612076878383876136ef565b60408051808201909152600080825260208201526020820151156136eb576040518060400160405280836000015160016136db9190613c63565b8152602084810151910152611dc3565b5090565b6060831561375e578251600003613757576001600160a01b0385163b6137575760405162461bcd60e51b815260206004820152601d60248201527f416464726573733a2063616c6c20746f206e6f6e2d636f6e747261637400000060448201526064016106e6565b508161203c565b61203c83838151156137735781518083602001fd5b8060405162461bcd60e51b81526004016106e69190613d5b565b6040518060c0016040528060008152602001600081526020016000815260200160008152602001600081526020016137d8604051806040016040528060008152602001600081525090565b905290565b80356001600160a01b038116811461200557600080fd5b6000806000806080858703121561380a57600080fd5b613813856137dd565b9350602085013592506040850135915061382f606086016137dd565b905092959194509250565b80356002811061200557600080fd5b60008060006060848603121561385e57600080fd5b613867846137dd565b92506138756020850161383a565b9150613883604085016137dd565b90509250925092565b60006020828403121561389e57600080fd5b5035919050565b6000602082840312156138b757600080fd5b612857826137dd565b600080600080600060a086880312156138d857600080fd5b6138e1866137dd565b94506138ef602087016137dd565b9350604086013592506060860135915061390b6080870161383a565b90509295509295909350565b600080600080600060a0868803121561392f57600080fd5b505083359560208501359550604085013594606081013594506080013592509050565b6000806000806080858703121561396857600080fd5b613971856137dd565b935061397f602086016137dd565b92506040850135915061382f6060860161383a565b600080604083850312156139a757600080fd5b6139b0836137dd565b91506139be602084016137dd565b90509250929050565b600080600080600080600060e0888a0312156139e257600080fd5b6139eb886137dd565b96506139f9602089016137dd565b96999698505050506040850135946060810135946080820135945060a0820135935060c0909101359150565b600080600060608486031215613a3a57600080fd5b613a43846137dd565b9250613a51602085016137dd565b91506138836040850161383a565b60208082526027908201527f506f736974696f6e4d616e616765723a206f6e6c79206f72646572626f6f6b20604082015266185b1b1bddd95960ca1b606082015260800190565b634e487b7160e01b600052602160045260246000fd5b60028110613ada57634e487b7160e01b600052602160045260246000fd5b9052565b8881526001600160a01b0388811660208301528781166040830152861660608201526080810185905260a081018490526101008101613b2060c0830185613abc565b8260e08301529998505050505050505050565b600060208284031215613b4557600080fd5b5051919050565b634e487b7160e01b600052601160045260246000fd5b6000816000190483118215151615613b7c57613b7c613b4c565b500290565b634e487b7160e01b600052601260045260246000fd5b600082613ba657613ba6613b81565b500490565b8981526001600160a01b0389811660208301528881166040830152871660608201526101208101613bdf6080830188613abc565b8560a08301528460c08301528360e0830152826101008301529a9950505050505050505050565b634e487b7160e01b600052603260045260246000fd5b634e487b7160e01b600052600160045260246000fd5b600060018201613c4457613c44613b4c565b5060010190565b60008219821115613c5e57613c5e613b4c565b500190565b600082821015613c7557613c75613b4c565b500390565b60006bffffffffffffffffffffffff19808760601b168352808660601b166014840152808560601b1660288401525060028310613cc757634e487b7160e01b600052602160045260246000fd5b5060f89190911b603c820152603d019392505050565b600060208284031215613cef57600080fd5b8151801515811461285757600080fd5b60005b83811015613d1a578181015183820152602001613d02565b83811115611ab15750506000910152565b60008251613d3d818460208701613cff565b9190910192915050565b600082613d5657613d56613b81565b500690565b6020815260008251806020840152613d7a816040850160208701613cff565b601f01601f1916919091016040019291505056fea26469706673582212200bc8a3b1c9f14d11b2427b1b10ae6f22220e880d07db5ea2e8b457710296c3d664736f6c634300080f0033",
    "linkReferences": {}
  },
  "methodIdentifiers": {
    "addLiquidity(address,uint256,uint256,address)": "12fef692",
    "addToken(address)": "d48bfca7",
    "allWhitelistedTokens(uint256)": "e468baf0",
    "decreasePosition(address,address,uint256,uint256,uint8)": "81071e68",
    "fee()": "ddca3f43",
    "feeDistributor()": "0d43e8ad",
    "getPoolValue()": "1ba2f531",
    "getPosition(address,address,uint8)": "fd5e2ef5",
    "increasePosition(address,address,uint256,uint8)": "b19c3b6f",
    "initialize(address,address,uint256,uint256,uint256,uint256,uint256)": "edbf4ac2",
    "liquidatePosition(address,address,uint8)": "faa4aaf3",
    "maxLeverages(address)": "73e813c2",
    "oracle()": "7dc0d1d0",
    "orderBook()": "776af5ba",
    "owner()": "8da5cb5b",
    "poolAssets(address)": "e980f945",
    "positions(bytes32)": "514ea4bf",
    "removeLiquidity(address,uint256,uint256,address)": "8fed0b2c",
    "renounceOwnership()": "715018a6",
    "setFee(uint256,uint256,uint256,uint256,uint256)": "a2e00d63",
    "setFeeDistributor(address)": "ccfc2e8d",
    "setOracle(address)": "7adbf973",
    "setOrderBook(address)": "9a1598c8",
    "stableToken()": "a9d75b2b",
    "transferOwnership(address)": "f2fde38b",
    "validateToken(address,uint8,address)": "4428fd11",
    "whitelistedTokens(address)": "daf9c210",
    "withdrawFee(address,address)": "c879c6d8"
  },
  "id": 19
}